S014000046696E616C50726F6A6563742E737265634F
S11300000C9487000C94A6000C94A6000C94A600F3
S11300100C94A6000C94A6000C94A6000C94A600C4
S11300200C94A6000C9416090C94A6000C94BF0022
S11300300C94A6000C94A6000C94A8000C94A600A2
S11300400C94A6000C94A6000C94A6000C94A60094
S11300500C94A6000C94A6000C94A6000C94A60084
S11300600C94A6000C94A6000C94A6000C94A60074
S11300700C94A6000C94A6000C94A6000C94A60064
S11300800C94A6000C94A6000C94A60007634236B8
S1130090B79BD8A71A39685618AEBAAB558C1D3C15
S11300A0B7CC5763BD6DEDFD753EF6177231BF00D9
S11300B00000803F08000000BE922449123EABAA13
S11300C0AA2ABECDCCCC4C3E00000080BEABAAAA6E
S11300D0AA3E00000000BF000000803F00000000B6
S11300E000084178D3BB4387D1133D190E3CC3BDEF
S11300F04282AD2B3E68EC8276BED98FE1A93E4C9C
S113010080EFFFBE01C4FF7F3F0000000000112408
S11301101FBECFEFD0E1DEBFCDBF12E0A0E0B1E063
S1130120E2EBF1E200E00BBF02C007900D92A43AAB
S1130130B107D9F722E0A4EAB2E001C01D92A23BC4
S1130140B207E1F70E9489010C94D7100C940000C7
S11301501F920F920FB60F9211248F939F93809149
S1130160A6029091A70201969093A7028093A602FB
S11301709F918F910F900FBE0F901F9018951F9213
S11301800F920FB60F9211248F939F930EB406FE15
S113019006C086B597B59093AB028093AA020EB4BD
S11301A006FC0CC086B597B59093A9028093A8026B
S11301B081E090E09093A5028093A4029EB580E430
S11301C089278EBD9F918F910F900FBE0F901F9026
S11301D01895EF92FF920F931F93CF93DF93D82F2D
S11301E0C92F8AE00E94DE088DE00E94DE08ED2F10
S11301F0FC2FDF010D900020E9F711977D01EE1A25
S1130200FF0A1E141F046CF40D2F1C2FC0E0D0E055
S1130210F80181918F010E94DE082196EC16FD06FB
S1130220B9F7DF91CF911F910F91FF90EF9008954F
S11302301FBC82E88EBD84E287BF089580910601C9
S1130240909107010197909387008093860083EC37
S113025099E090938500809384008BEA80938B00CF
S11302608AE180938A0010928C00149A089523E105
S1130270AC01249FC001259F900D112489519C4FEE
S11302809093850080938400089597B18F72982B82
S113029097B9369A3699FECF24B135B1822F932F70
S11302A0089582EC87B987E886B90895CF93DF93E0
S11302B0CDB7DEB7C457D1090FB6F894DEBF0FBE71
S11302C0CDBF8AE3E4E3F1E0DE01119601900D92E3
S11302D08A95E1F78AE3EEE6F1E0DE01DB96019030
S11302E00D928A95E1F79E01255C3F4FAE014F5F69
S11302F05F4F6AE370E080E090E00E947B07CC5897
S1130300DF4F0FB6F894DEBF0FBECDBFDF91CF91A4
S11303100895CF93DF93CDB7DEB7C75CD1400FB656
S1130320F894DEBF0FBECDBF0E940D050E941E01D2
S11303300E9418010E9451010E94CA080E9462078B
S1130340CA53DE4F99838883C65CD1400E949608C5
S11303500E940D0588EA91E00E94E9001A82198240
S11303601C821B822E012BE5421A2EEF520ACE016B
S113037087569E4FCD54DE4F99838883C35BD1400B
S1130380FE01E357FE4FCB54DE4FF983E883C55B90
S1130390D1409E012F573E4FC954DE4F39832883E5
S11303A0C75BD1401E0133EE231A3EEF330ACE0160
S11303B087549F4FC754DE4F99838883C95BD140CC
S11303C0C154DE4F2882CF5BD140C054DE4F388207
S11303D0C05CD140CC53DE4F8883C45CD140CB5346
S11303E0DE4F9883C55CD140FE01E759FF4FC554E9
S11303F0DE4FF983E883CB5BD1400E94D608CD530E
S1130400DE4F8883C35CD1400E94DE08CD53DE4FAB
S1130410F881C35CD140F13309F07EC18CE0F20174
S1130420282F11922A95E9F7CD54DE4FE881F981FE
S1130430C35BD140282F11922A95E9F7CB54DE4FA4
S1130440E881F981C55BD140282F11922A95E9F7FB
S1130450C954DE4FE881F981C75BD14011928A9576
S1130460E9F7612C712C812C912C0F2EFEEAAF2E12
S1130470F1E0BF2EF02D9E012B5F3F4FCF54DE4F96
S113048039832883C15BD140C3010E94370184E1D1
S113049090E00E94FE0882E00E944501BC0180E0D9
S11304A090E00E94590924EA30E74DE95FEB0E948D
S11304B0220A20E030E347E257E40E94BF090E9489
S11304C02D09F62E062F10E01F926F937F926F92E4
S11304D0BF92AF923F922F920E94030EC154DE4FFF
S11304E08881CF5BD140C054DE4F9881C05CD1403D
S11304F00E94E9000FB6F894DEBF0FBECDBF9FE4A3
S11305009F1570F19401220F331FF201E20FF31FC4
S113051080819181019691838083E1E8F1E0EC0F81
S1130520FD1FE20FF31F608171816F5F7F4F718345
S11305306083EDE8F1E0EC0FFD1FE20FF31F808113
S11305409181800F911F91838083E9E9F1E0EC0FA1
S1130550FD1FE20FF31F0E947C0C71836083CDC0EA
S1130560F401EE0FFF1FE40DF51DC080D180E5E01E
S1130570CE16D10444F4F401EE0FFF1FE40DF51D73
S113058011821082BAC0C601DD200CF40196959543
S113059087959301281B390BCF53DE4F398328836A
S11305A0C15CD140F401EE0FFF1F89E991E08C0F8B
S11305B09D1FE80FF91F20813181C354DE4F398319
S11305C02883CD5BD140C29EC001C39E900DD29EB4
S11305D0900D11248C3C91400CF051C08DE00E9490
S11305E0DE088AE00E94DE080F2EF8E0EF2EF1E02C
S11305F0FF2EF02D00E010E007C0F70181917F018C
S11306000E94DE080F5F1F4FE8E0F1E00190002038
S1130610E9F73197E850F1400E171F0770F3CE53F6
S1130620DE4FF881C25CD140FF93CF53DE4F288167
S1130630C15CD1402F9382EC91E09F938F93C65479
S1130640DE4FF881CA5BD140FF93C754DE4F288147
S1130650C95BD1402F930E94030ECC53DE4F888197
S1130660C45CD140CB53DE4F9881C55CD1400E941D
S1130670E9000F900F900F900F900F900F90DF9262
S1130680CF92C254DE4F3881CE5BD1403F93C354E6
S1130690DE4F8881CD5BD1408F93CE53DE4F98815E
S11306A0C25CD1409F93CF53DE4FE881C15CD140FF
S11306B0EF9327ED31E03F932F93CE54DE4F988193
S11306C0C25BD1409F93CF54DE4FE881C15BD140E0
S11306D0EF930E94030ECE0105960E94E9008DE07F
S11306E00E94DE088AE00E94DE08FFEF8F1A9F0A4C
S11306F00FB6F894DEBF0FBECDBF3FEF631A730A87
S113070085EB6816710409F0BFCE87EE93E09093F1
S113071085008093840024C0CD53DE4F9881C35C50
S1130720D140973759F464E170E0CA53DE4F8881B1
S11307309981C65CD1400E94800524C0CD53DE4F10
S1130740E881C35CD140E33759F464E170E0CA53F3
S1130750DE4F88819981C65CD1400E944F0524C038
S1130760CD53DE4FF881C35CD140F13659F462E5D4
S113077070E0CA53DE4F88819981C65CD1400E94E3
S11307800B0724C0CD53DE4F2881C35CD1402436EF
S113079059F462E570E0CA53DE4F88819981C65CE2
S11307A0D1400E94360724C0CD53DE4F3881C35C4C
S11307B0D140313759F466E270E0CA53DE4F888184
S11307C09981C65CD1400E940B0724C0CD53DE4FF3
S11307D08881C35CD140853659F466E270E0CA531F
S11307E0DE4F88819981C65CD1400E94360724C0BF
S11307F0CD53DE4F9881C35CD140983359F465E002
S113080070E0CA53DE4F88819981C65CD1400E9452
S1130810800524C0CD53DE4FE881C35CD140E5336D
S113082059F465E070E0CA53DE4F88819981C65C53
S1130830D1400E944F05E1CDCD53DE4FF881C35C1A
S1130840D140F03759F40E9462070E9496080E9432
S1130850560180E090E00E947107CFCDCD53DE4F6A
S11308602881C35CD1402B3609F0C7CDCA53DE4F73
S113087088819981C65CD1400E94F707CA53DE4F34
S1130880E881F981C65CD140A48CB58C82A093A088
S1130890668C778C20A131A1C354DE4F3983288321
S11308A0CD5BD140BF92AF9287E092E09F938F934C
S11308B0C454DE4F3881CC5BD1403F93C554DE4FE6
S11308C08881CB5BD1408F930E94030E9F928F92BD
S11308D088E192E09F938F938E0103581F4F1F93DB
S11308E00F930E94030E7F926F9289E292E09F938E
S11308F08F936E0191E9C90ED11CDF92CF920E94B1
S1130900030EC254DE4FE881CE5BD140EF93C35453
S1130910DE4FF881CD5BD140FF938AE392E09F9351
S11309208F937E0125EAE20EF11CFF92EF920E9462
S1130930030E8DE00E94DE088AE00E94DE08CE01EC
S113094087599F4F0E94E900C6010E94E900C70130
S11309500E94E900C8010E94E9000FB6F894DEBFC6
S11309600FBECDBF95EFA91691E0B906A4F4E5EF4B
S11309708E16E1E09E067CF4F5EF6F16F1E07F063B
S113098054F4C354DE4F28813981CD5BD140253FD7
S113099031400CF432CD8DE00E94DE088AE00E94E2
S11309A0DE080FE111E0C12CD12C780108C0F80158
S11309B081918F010E94DE08FFEFCF1ADF0AF70151
S11309C001900020E9F73197EF51F140CE16DF0690
S11309D070F313CDDE9A90E00E94FE08DE988BB38C
S11309E0807F8BBB0895CF93C82FDC988BB39C2F4B
S11309F092959F70892B8BBB82E00E94EA048BB393
S1130A00CF70C82BCBBB82E00E94EA04DC9ACF9162
S1130A10089582E00E94F30408958FEF8ABB83E077
S1130A208BBBDE9A81E090E00E94FE08DE9885E0B0
S1130A3090E00E94FE08DE9A81E090E00E94FE08A9
S1130A40DE98DE9A81E090E00E94FE08DE9882E063
S1130A508BBB81E00E94EA048BB38BBB81E00E94D4
S1130A60EA048BB38E608BBB81E00E94EA048BB3F3
S1130A708BBB81E00E94EA048BB386608BBB81E070
S1130A800E94EA048BB38BBB81E00E94EA04D89AEB
S1130A9081E00E94EA04DC9A0E9409050895EF921D
S1130AA0FF920F931F93CF93DF938C01EB016CE9BB
S1130AB07FEF8CE99FEF0E94AF0726EFAE0124037E
S1130AC07001259FF00C1124FF206CF4C0E0D0E0ED
S1130AD0C8010E94F707F80184859585C80FD91FBE
S1130AE0EC16FD06ACF360E070E080E090E00E945C
S1130AF0AF07DF91CF911F910F91FF90EF90089571
S1130B00CF92DF92EF92FF920F931F93CF93DF93D5
S1130B10CDB7DEB7C855D1090FB6F894DEBF0FBE06
S1130B20CDBF8C01E62EF72E83E1EBE4F2E0DE018B
S1130B30119601900D928A95E1F784E1EEE5F2E0D9
S1130B40DE01549601900D928A95E1F782E1E2E785
S1130B50F2E0DE01989601900D928A95E1F78CE01F
S1130B60E4E8F2E0DE01DA9601900D928A95E1F76D
S1130B7083E1E0E9F2E0DE01AA5BBF4F01900D9250
S1130B808A95E1F764E670E084E690E00E94AF079E
S1130B90CE2CDF2CCC0CDD1CC601880F991F880FCE
S1130BA0991FC80ED91E1C141D040CF01EC1F80197
S1130BB08381811116C08281811113C084818111C6
S1130BC045C08581811142C0808181FD71C0E12CC5
S1130BD0F12C9DC0F8018381811103C08281882397
S1130BE071F18DE090E00E94DE088AE090E00E94BE
S1130BF0DE0860E070E080E090E00E94AF0763E010
S1130C0070E0C8010E944F056E01F8E2CF0ED11CBE
S1130C1000E010E0760108C0F60181916F0190E0D8
S1130C200E94DE080F5F1F4FF70101900020E9F7D3
S1130C303197EE19FF090E171F0770F3D6C0F8019C
S1130C408481811103C08581882371F18DE090E056
S1130C500E94DE088AE090E00E94DE0860E070E016
S1130C6080E090E00E94AF0763E070E0C8010E945A
S1130C704F056E01F6E4CF0ED11C00E010E07601C2
S1130C8008C0F60181916F0190E00E94DE080F5FB9
S1130C901F4FF70101900020E9F73197EE19FF0982
S1130CA00E171F0770F3A1C0F801808181FF2FC0C8
S1130CB08DE090E00E94DE088AE090E00E94DE0869
S1130CC060E070E080E090E00E94AF0763E070E0D5
S1130CD0C8010E944F05CC24C394D12CCC0EDD1E38
S1130CE000E010E0760108C0F60181916F0190E008
S1130CF00E94DE080F5F1F4FF70101900020E9F703
S1130D003197EE19FF090E171F0770F36EC080FFAD
S1130D102EC08DE090E00E94DE088AE090E00E9400
S1130D20DE0860E070E080E090E00E94AF0763E0DE
S1130D3070E0C8010E944F056E01F4E1CF0ED11C92
S1130D4000E010E0760108C0F60181916F0190E0A7
S1130D500E94DE080F5F1F4FF70101900020E9F7A2
S1130D603197EE19FF090E171F0770F33EC0F80103
S1130D708681882371F18DE090E00E94DE088AE08C
S1130D8090E00E94DE0860E070E080E090E00E9465
S1130D90AF0763E070E0C8010E944F056E01FAE3FB
S1130DA0CF0ED11C00E010E0760108C0F60181915D
S1130DB06F0190E00E94DE080F5F1F4FF701019062
S1130DC00020E9F73197EE19FF090E171F0770F39A
S1130DD00CC0C8010E94F707F80184859585E80EC8
S1130DE0F91EEC14FD040CF4F5CE60E070E080E034
S1130DF090E00E94AF07C85ADF4F0FB6F894DEBFE9
S1130E000FBECDBFDF91CF911F910F91FF90EF9057
S1130E10DF90CF900895EF92FF920F931F93CF939B
S1130E20DF938C017B016AE67FEF86E990E00E9404
S1130E30AF071E141F046CF4C0E0D0E0C8010E9488
S1130E40F707F80186859785C80FD91FCE15DF05EA
S1130E50ACF360E070E080E090E00E94AF07DF91C7
S1130E60CF911F910F91FF90EF900895EF92FF9211
S1130E700F931F93CF93DF938C017B0166E970E09E
S1130E808AE69FEF0E94AF07F194E194F1086AF4B7
S1130E90C0E0D0E0C8010E94F707F8018685978575
S1130EA0C80FD91FEC16FD06ACF360E070E080E0DB
S1130EB090E00E94AF07DF91CF911F910F91FF90B7
S1130EC0EF90089564E370E081E090E00E94A40C48
S1130ED00895EBE9F0E0908195FFFDCF80939C00AD
S1130EE00895CF93C82F8DE80E9469078C2F0E9424
S1130EF06907CF910895CF92DF92EF92FF920F93FB
S1130F001F93CF93DF93C82F7B01042F152FC22E7D
S1130F10D32E8CE80E9469078C2F0E9469078E2DBE
S1130F200E9469071E141F048CF4C02FD12F0C2DAE
S1130F301D2DEC0EFD1E89910E946907F801819117
S1130F408F010E946907CE15DF05A9F7DF91CF91C4
S1130F501F910F91FF90EF90DF90CF9008950F9322
S1130F601F93CF93DF93182F092FC62FD72F81E913
S1130F700E946907802F0E946907812F0E946907D8
S1130F808D2F0E9469078C2F0E946907DF91CF91F2
S1130F901F910F9108950F931F93CF93DF93082F01
S1130FA0162FD42FC22F8BE80E946907112341F01A
S1130FB061E070E0011102C060E070E0CB0102C0AA
S1130FC080E090E00E9469078D2F0E9469078C2FB2
S1130FD00E946907DF91CF911F910F910895EBE96A
S1130FE0F0E080818823ECF780919C000895EF92D3
S1130FF0FF920F931F93CF93DF937C0180919B000B
S1131000882344F4ACE9B0E0EBE9F0E08C91808112
S11310108823E4F38EE80E94690786E00E9469074A
S113102087010C5C1F4FE7010E94EF078993C017EB
S1131030D107D1F7F701948580E02585820F911DB2
S113104095878487968580E02785820F911D9787F1
S11310508687918980E02289820F911D928B818BF2
S1131060938980E02489820F911D948B838B9689C8
S113107080E02789820F911D978B868B908D80E06D
S1131080218D820F911D918F808F928D80E0238D11
S1131090820F911D938F828F948D80E0258D820F16
S11310A0911D958F848F968D80E0278D820F911DE1
S11310B0978F868F90A180E021A1820F911D91A32B
S11310C080A392A180E023A1820F911D93A382A308
S11310D042A550E031A520E0240F351F36A325A3F7
S11310E090A980E0840F951F95A784A792A980E01A
S11310F023A9820F911D97A786A794A980E025A90B
S1131100820F911D91AB80AB96A980E027A9820F35
S1131110911D93AB82AB83E290E00E94FE08DF91C5
S1131120CF911F910F91FF90EF9008950F931F930C
S1131130CF93DF93EC0109E910E080E1F8018083AB
S113114088E180939A0086E080939D0080E80E9465
S1131150690781E80E94690788E00E94690784E6BC
S113116090E00E94FE0881E2F801808384E80E94F6
S113117069072FEF47E061E081E00E94CB07CE01D1
S11311800E94F707CE010E94F707DF91CF911F91CC
S11311900F9108951092900082E289B982E08BB990
S11311A088E18AB986E08093950008955F9B02C028
S11311B08CB108955D9BFACF80E008955D9BFECFCE
S11311C08CB908951092AD021092AC02811106C040
S11311D08BE085BD87B7806887BF07C0813029F45D
S11311E089E085BD87B7806887BF7894089587B7FD
S11311F08F7787BF85B58F7785BD0895CF93DF93AC
S1131200EC018AEF83BD1092AD021092AC0280E033
S11312100E94E2082091AC023091AD022C173D07E8
S1131220C8F30E94F708DF91CF9108951F920F929F
S11312300FB60F9211248F939F938091AC029091DB
S1131240AD0201969093AD028093AC029F918F9171
S11312500F900FBE0F901F90189570D088F09F5775
S113126090F0B92F9927B751A0F0D1F0660F771FEE
S1131270881F991F1AF0BA95C9F712C0B13081F0CE
S113128077D0B1E0089574C0672F782F8827B85FAE
S113129039F0B93FCCF3869577956795B395D9F72F
S11312A03EF490958095709561957F4F8F4F9F4F39
S11312B00895E89409C097FB3EF490958095709545
S11312C061957F4F8F4F9F4F9923A9F0F92F96E98E
S11312D0BB279395F695879577956795B795F11103
S11312E0F8CFFAF4BB0F11F460FF1BC06F5F7F4FA0
S11312F08F4F9F4F16C0882311F096E911C07723B2
S113130021F09EE8872F762F05C0662371F096E8BA
S1131310862F70E060E02AF09A95660F771F881F89
S1131320DAF7880F9695879597F9089557FD9058A1
S1131330440F551F59F05F3F71F04795880F97FB95
S1131340991F61F09F3F79F087950895121613064F
S11313501406551FF2CF4695F1DF08C0161617067E
S11313601806991FF1CF86957105610508940895B3
S1131370E894BB2766277727CB0197F908950BD00C
S11313801AC10BD128F010D118F0952309F0D7C059
S1131390DCC01124EECFCADFA0F3959FD1F3950FE3
S11313A050E0551F629FF001729FBB27F00DB11DE5
S11313B0639FAA27F00DB11DAA1F649F6627B00D75
S11313C0A11D661F829F2227B00DA11D621F739F5E
S11313D0B00DA11D621F839FA00D611D221F749F6C
S11313E03327A00D611D231F849F600D211D822FB3
S11313F0762F6A2F11249F5750408AF0E1F08823FA
S11314004AF0EE0FFF1FBB1F661F771F881F915006
S11314105040A9F79E3F510570F091C0AACF5F3F9D
S1131420ECF3983EDCF3869577956795B795F79539
S1131430E7959F5FC1F7FE2B880F911D96958795C1
S113144097F90895FA01EE0FFF1F30962105310533
S113145099F16115710561F48038BFE39B0749F187
S113146068949038810561F08038BFEF9B0741F0A4
S1131470992342F5FF3FE1053105210511F1E89477
S11314800894E795D901AA2329F4AB2FBE2FF85F5E
S1131490D0F310C0FF5F70F4A695E0F7F73950F071
S11314A019F0FF3A38F49F779F930CD00F9007FC04
S11314B0905808953EF049C060E070E080E89FE3F2
S11314C008954FE79F775F934F933F932F93C6D031
S11314D02F913F914F915F9152DF05C019F40EF0A7
S11314E02EC046CF32C02ADFC8F39638C0F707F8BB
S11314F00F92E8942BE33AEA48EB5FE74EDF0F9252
S11315000F920F924DB75EB70F92E8D0ECE8F0E07F
S11315101FD04F915F91EF91FF91E595EE1FFF1F53
S113152049F0FE57E0684427EE0F441FFA95E1F7AF
S11315304195550B5AD00F9007FE4EC0089597F968
S11315409F6780E870E060E008959FEF80EC089565
S1131550DF93CF931F930F93FF92EF92DF927B0160
S11315608C01689405C0DA2EEF0115DFFE01E894C2
S1131570A5912591359145915591AEF3EF01F3D0A5
S1131580FE019701A801DA9479F7DF90EF90FF90BC
S11315900F911F91CF91DF91089500240A9416169C
S11315A0170618060906089500240A94121613064D
S11315B0140605060895092E0394000C11F48823DB
S11315C052F0BB0F40F4BF2B11F460FF04C06F5FF7
S11315D07F4F8F4F9F4F08959B01AC0160E070E0F7
S11315E080E89FE313C1ABCF79C1A8DEE8F3992368
S11315F0D9F3940F511DBBF39150504094F059F01E
S1131600882332F0660F771F881F91505040C1F72E
S11316109E3F510544F7880F911D9695879597F93C
S113162008955F3FACF0983E9CF0BB278695779574
S11316306795B79508F4B1609395C1F7BB0F58F758
S113164011F460FFE8CF6F5F7F4F8F4F9F4FE3CF61
S113165090CE0EF043C179CF689471CF6FDEC8F39A
S11316609923D1F3C6F3DF93CF931F930F93FF9284
S1131670C92FDD2788232AF02197660F771F881F3B
S1131680DAF720E030E040E85FEB9FE3883920F0B0
S1131690803E30F021968F7755D0E4EBF0E003C024
S11316A051D0E1EEF0E054DF8B01BE01EC01FB2EE2
S11316B06F5771097595771F880B990BFCDD28E12D
S11316C032E741E35FE367DEAF2D9801AE01FF909F
S11316D00F911F91CF91DF9146D06DCFFA01DC01BC
S11316E0AA0FBB1F9B01AC01BF5728F42227332745
S11316F0442750781FC0B75188F4AB2F0024469577
S113170037952795011CA395D2F3002069F0220F89
S1131710331F441FB395DAF30DD013C06130710544
S1131720A0E88A07B94630F49B01AC016627772705
S113173088279078309621F0208331834283538325
S113174008955058BB27AA270ED035CF26DF30F096
S11317502BDF20F031F49F3F11F41EF4F6CE0EF48B
S1131760E095E7FBECCEE92FE1DD80F3BA176207E1
S113177073078407950718F071F49EF5F9CD0EF4FC
S1131780E0950B2EBA2FA02D0B01B90190010C018D
S1131790CA01A0011124FF27591B99F0593F50F4A5
S11317A0503E68F11A16F040A22F232F342F4427FD
S11317B0585FF3CF469537952795A795F0405395F5
S11317C0C9F77EF41F16BA0B620B730B840BBAF0C5
S11317D09150A1F0FF0FBB1F661F771F881FC2F730
S11317E00EC0BA0F621F731F841F48F48795779544
S11317F06795B795F7959E3F08F0B3CF9395880FFB
S113180008F09927EE0F9795879508950CD0D3CEBD
S1131810CBDE40F0C2DE30F021F45F3F19F08FCE12
S11318205111A7CD92CE82DD98F39923C9F35523A4
S1131830B1F3951B550BBB27AA27621773078407BF
S113184038F09F5F5F4F220F331F441FAA1FA9F375
S113185033D00E2E3AF0E0E830D091505040E69567
S1131860001CCAF729D0FE2F27D0660F771F881FC8
S1131870BB1F261737074807AB07B0E809F0BB0BB7
S1131880802DBF01FF2793585F4F2AF09E3F5105DB
S113189068F055CE6ECD5F3FECF3983EDCF3869551
S11318A077956795B795F7959F5FC9F7880F911D51
S11318B09695879597F90895E1E0660F771F881F3D
S11318C0BB1F621773078407BA0720F0621B730BF0
S11318D0840BBA0BEE1F88F7E09508959F3F31F013
S11318E0915020F4879577956795B795880F911D4A
S11318F09695879597F9089597FB072E16F400940B
S113190007D077FD09D00E94900C07FC05D03EF467
S1131910909581959F4F0895709561957F4F089597
S1131920AA1BBB1B51E107C0AA1FBB1FA617B70701
S113193010F0A61BB70B881F991F5A95A9F780951D
S11319409095BC01CD0108950F931F93CF93DF931E
S1131950689F8001699F100D789F100D1124C801A4
S11319600E94C20CC82FD92F209731F0A80160E043
S113197070E08C2F0E94FC0DCE01DF91CF911F915E
S11319800F9108950F931F93CF93DF9382309105A6
S113199010F482E090E0E091B002F091B10220E016
S11319A030E0C0E0D0E023C040815181481759079E
S11319B0A8F04817590761F482819381209719F0A0
S11319C09B838A832EC09093B1028093B00229C076
S11319D02115310529F04217530710F0A90102C05F
S11319E0BE01DF0102811381EF019A01F8013097F2
S11319F0D9F62115310509F1281B390B243031059D
S1131A0090F412968D919C9113976115710521F0B4
S1131A10FB019383828304C09093B1028093B0024C
S1131A20FD01329644C0FD01E20FF31F81939193AF
S1131A30225031092D933C933AC02091AE0230914B
S1131A40AF02232B41F42091020130910301309322
S1131A50AF022093AE0220910001309101012115C3
S1131A60310541F42DB73EB7409104015091050171
S1131A70241B350BE091AE02F091AF02E217F3079D
S1131A80A0F42E1B3F0B2817390778F0AC014E5FEA
S1131A905F4F2417350748F04E0F5F1F5093AF0276
S1131AA04093AE028193919302C0E0E0F0E0CF0155
S1131AB0DF91CF911F910F910895EF92FF920F93B1
S1131AC01F93CF93DF93009709F48FC0DC01129723
S1131AD013961C921E921297E090B002F090B102FD
S1131AE0E114F10489F42D913C911197280F391FC9
S1131AF08091AE029091AF028217930789F5B0935B
S1131B00AF02A093AE0271C0E70120E030E001C053
S1131B10EA01CA17DB0738F44A815B819E0141154B
S1131B205105B1F722C0BC0162507109FB01D38396
S1131B30C28300811181AC01400F511F4C175D0716
S1131B4061F448815981400F511F4E5F5F4F5183AB
S1131B5040834A815B81538342832115310529F4F3
S1131B60B093B102A093B00240C0F901B383A28341
S1131B70E90169917991C60FD71FAC17BD0779F4B4
S1131B80DC015E914E91460F571F4E5F5F4F5183AC
S1131B90408312968D919C91139793838283A0E046
S1131BA0B0E002C0D7017C01F701828193810097E4
S1131BB0C9F7C701029620813181820F931F2091BA
S1131BC0AE023091AF022817390779F4109729F43F
S1131BD01092B1021092B00204C013961C921E928D
S1131BE01297F092AF02E092AE02DF91CF911F9173
S1131BF00F91FF90EF900895DC0101C06D93415067
S1131C005040E0F708950F931F93CF93DF93CDB720
S1131C10DEB72E970FB6F894DEBF0FBECDBF0D8989
S1131C201E8986E08C831A8309838FEF9FE79E8346
S1131C308D83CE014996AC016F89788DCE010196D2
S1131C400E94320EEF81F885E00FF11F10822E966C
S1131C500FB6F894DEBF0FBECDBFDF91CF911F91B9
S1131C600F9108952F923F924F925F926F927F92BD
S1131C708F929F92AF92BF92CF92DF92EF92FF9298
S1131C800F931F93CF93DF93CDB7DEB72C970FB687
S1131C90F894DEBF0FBECDBF7C016B018A01FC014D
S1131CA017821682838181FFC6C188248394912C74
S1131CB08C0E9D1EF7019381F60193FD859193FF90
S1131CC081916F01882309F4B2C1853239F493FDFF
S1131CD0859193FF81916F01853229F4B70190E0DA
S1131CE00E944D10E7CF512C312C20E02032A8F473
S1131CF08B3261F028F4803251F0833271F40BC0DE
S1131D008D3239F0803349F4216028C02260246088
S1131D1025C0286023C0206121C027FD27C0382F9B
S1131D2030533A3078F426FF06C0FAE05F9E300D57
S1131D301124532E13C08AE0389E300D1124332E03
S1131D4020620CC08E3221F426FD71C1206406C0CD
S1131D508C3611F4206802C0883641F4F60193FDF4
S1131D60859193FF81916F018111C0CF982F955474
S1131D70933018F09052933028F40C5F1F4FFFE318
S1131D80F9830DC0833631F0833771F0833509F060
S1131D905EC023C0F801808189830E5F1F4F4424F5
S1131DA04394512C540115C03801F2E06F0E711C9C
S1131DB0F801A080B18026FF03C0652D70E002C049
S1131DC06FEF7FEFC5012C870E9442102C01830125
S1131DD02C856FE7262E222218C03801F2E06F0E00
S1131DE0711CF801A080B18026FF03C0652D70E04E
S1131DF002C06FEF7FEFC5012C870E9437102C01C2
S1131E002C8550E8252E222A830123FC1CC006C001
S1131E10B70180E290E00E944D103A94832D90E047
S1131E2048165906A8F30FC0F50127FC859127FE33
S1131E3081915F01B70190E00E944D1031103A94F6
S1131E40F1E04F1A51084114510471F7EDC0843682
S1131E5011F0893641F5F80127FF07C060817181CF
S1131E60828193810C5F1F4F08C060817181882734
S1131E7077FD8095982F0E5F1F4F4FE6B42EB22248
S1131E8097FF09C090958095709561957F4F8F4F0E
S1131E909F4FF0E8BF2A2AE030E0A4010E947910A5
S1131EA0A82EA81843C0853731F43FEEB32EB222D2
S1131EB02AE030E024C099EFB92EB2228F36B9F06F
S1131EC020F4883509F0B3C00DC0803721F088377D
S1131ED009F0ADC002C020E1B22AB4FE0BC084E018
S1131EE0B82A08C024FF09C0E6E0BE2A06C028E0DC
S1131EF030E005C020E130E002C020E132E0F8012A
S1131F00B7FE07C060817181828193810C5F1F4F8E
S1131F1006C06081718180E090E00E5F1F4FA401D4
S1131F200E947910A82EA818FFE7BF22B6FE0BC0A6
S1131F302B2D2E7FA51450F4B4FE0AC0B2FC08C0A9
S1131F402B2D2E7E05C07A2C2B2D03C07A2C01C09C
S1131F50752C24FF0DC0FE01EA0DF11D8081803334
S1131F6011F4297E09C022FF06C07394739404C03F
S1131F70822F867809F0739423FD14C020FF0FC0CC
S1131F805A2C731460F4530C5718732C08C0B701FF
S1131F9080E290E02C870E944D1073942C8573147A
S1131FA0B0F304C0731410F4371801C0312C24FFAB
S1131FB012C0B70180E390E02C870E944D102C855D
S1131FC022FF1EC021FF03C088E590E002C088E71D
S1131FD090E0B7010CC0822F867891F021FD02C0F9
S1131FE080E201C08BE227FD8DE2B70190E00E9400
S1131FF04D1006C0B70180E390E00E944D105A9442
S1132000A514C0F3AA94F401EA0DF11DB70180816F
S113201090E00E944D10A110F5CF06C0B70180E2F8
S113202090E00E944D103A943110F8CF43CEF7015E
S11320302681378102C02FEF3FEFC9012C960FB6DE
S1132040F894DEBF0FBECDBFDF91CF911F910F91EA
S1132050FF90EF90DF90CF90BF90AF909F908F90C4
S11320607F906F905F904F903F902F900895FC0168
S11320700590615070400110D8F7809590958E0FAF
S11320809F1F0895FC016150704001900110D8F722
S1132090809590958E0F9F1F08950F931F93CF9354
S11320A0DF938C01EB018B8181FD03C00FEF1FEFE8
S11320B01AC082FF0DC02E813F818C819D8128171B
S11320C0390764F4E881F9810193F983E88306C050
S11320D0E885F985802F0995892B41F78E819F81A9
S11320E001969F838E83C801DF91CF911F910F9139
S11320F00895FA01AA27283051F1203181F1E8949A
S11321006F936E7F6E5F7F4F8F4F9F4FAF4FB1E0E6
S11321103ED0B4E03CD0670F781F891F9A1FA11DE1
S1132120680F791F8A1F911DA11D6A0F711D811DE2
S1132130911DA11D20D009F468943F912AE0269FA7
S113214011243019305D3193DEF6CF010895462F06
S11321504770405D4193B3E00FD0C9F7F6CF462FE7
S11321604F70405D4A3318F0495D31FD4052419350
S113217002D0A9F7EACFB4E0A6959795879577950D
S11321806795BA95C9F700976105710508959B0194
S1132190AC010A2E06945795479537952795BA951D
S11321A0C9F7620F731F841F951FA01D0895F8942B
S10521B0FFCF5B
S11321B20000B2022000F8A7526574726976616C5D
S11321C22070696C6C61722064657465637400725A
S11321D26574726976616C207A6F6E6520646574C9
S11321E26563740078017802780378010203780148
S11321F27F0102034E014F024603780384028001E9
S1132202460102037F017F024D034E044B054B0638
S11322124B07490506074D01780146024B020707A1
S11322220707070707070707070707070707070738
S11322320707070707070707070707070707070728
S11322420707070707070707070707070707070718
S11322520707070707070707537461727400416E83
S1132262676C653A20253564090949523A202535B7
S113227264006F626A65637420706F736974696F56
S11322826E3A20253564006F626A65637420706F4C
S1132292736974696F6E3A20253564090949523AA3
S11322A22025356409096F626A6563742073697A4B
S11322B2653A20253564006C656674202020202050
S11322C22020203D20256400726967687420202044
S11322D2202020203D2025640066726F6E74206CDD
S11322E265667420203D2025640066726F6E74203A
S11322F27269676874203D202564006C65667420E9
S11323026F626A65637420646574656374007269DC
S1132312676874206F626A656374206465746563B8
S113232274006C65667420636C6966662064657407
S11323326563740077616C6C206465746563740012
S1132342726967687420636C696666206465746583
S107235263740000AC
S9030000FC
